:020000040800F2
:1000000000500020854400080D43000815430008F7
:100010001D430008254300082D4300080000000090
:100020000000000000000000000000003543000850
:1000300041430008000000004D43000859430008F8
:10004000CD440008CD440008CD440008CD4400084C
:10005000CD440008CD440008CD440008CD4400083C
:10006000CD440008CD440008CD440008CD4400082C
:10007000CD440008CD4400086543000879430008DA
:10008000CD440008CD440008CD440008CD4400080C
:10009000CD440008CD440008CD440008CD440008FC
:1000A000CD440008CD440008CD440008CD440008EC
:1000B0008D430008CD440008CD440008CD4400081D
:1000C000CD440008CD440008CD440008CD440008CC
:1000D000CD440008A1430008CD440008CD440008E9
:1000E000CD440008CD440008CD44000800000000C5
:1000F0000000000000000000000000000000000000
:0C01000000000000000000005FF808F1A3
:10010C0080F0004002E000BF81F0004142001FBFC0
:10011C005FEA410392EA030F7FEA226C7FEA236CC9
:10012C006AD04FEA1262D2EB1363C1BFD2184140BE
:10013C0048404140B8BF5B42192B88BF704710F054
:10014C00004F40F4000020F07F4018BF404211F0F7
:10015C00004F41F4000121F07F4118BF494292EA5F
:10016C00030F3FD0A2F1010241FA03FC10EB0C008B
:10017C00C3F1200301FA03F100F0004302D5494218
:10018C0060EB4000B0F5000F13D3B0F1807F06D3C5
:10019C0040084FEA310102F10102FE2A51D2B1F1BD
:1001AC00004F40EBC25008BF20F0010040EA0300B2
:1001BC007047490040EB0000013A28BFB0F5000F32
:1001CC00EDD2B0FA80FCACF1080CB2EB0C0200FAE8
:1001DC000CF0AABF00EBC25052421843BCBFD04037
:1001EC001843704792F0000F81F4000106BF80F4B1
:1001FC0000000132013BB5E74FEA41037FEA226C74
:10020C0018BF7FEA236C21D092EA030F04D092F03E
:10021C00000F08BF0846704790EA010F1CBF002072
:10022C00704712F07F4F04D1400028BF40F00040CF
:10023C00704712F100723CBF00F50000704700F0EF
:10024C00004343F0FE4040F4000070477FEA226216
:10025C0016BF08467FEA23630146420206BF5FEAE7
:10026C00412390EA010F40F4800070474FF00003E7
:10027C0004E000BF10F0004348BF40425FEA000CAE
:10028C0008BF704743F0964301464FF000001CE056
:10029C0050EA010208BF70474FF000030AE000BFAC
:1002AC0050EA010208BF704711F0004302D54042EA
:1002BC0061EB41015FEA010C02BF8446014600205C
:1002CC0043F0B64308BFA3F18053A3F50003BCFA77
:1002DC008CF2083AA3EBC25310DB01FA02FC634424
:1002EC0000FA02FCC2F12002BCF1004F20FA02F22B
:1002FC0043EB020008BF20F00100704702F120021E
:10030C0001FA02FCC2F1200250EA4C0021FA02F27E
:10031C0043EB020008BF20EADC7070474FF0FF0C83
:10032C001CEAD0521EBF1CEAD15392EA0C0F93EA7E
:10033C000C0F6FD01A4480EA010C400218BF5FEA20
:10034C0041211ED04FF0006343EA501043EA511193
:10035C00A0FB01310CF00040B1F5000F3EBF49008D
:10036C0041EAD3715B0040EA010062F17F02FD2A91
:10037C001DD8B3F1004F40EBC25008BF20F0010074
:10038C00704790F0000F0CF0004C08BF49024CEA8B
:10039C00502040EA51207F3AC2BFD2F1FF0340EA1D
:1003AC00C250704740F400004FF00003013A5DDC8E
:1003BC0012F1190FDCBF00F000407047C2F10002CF
:1003CC00410021FA02F1C2F1200200FA02FC5FEABC
:1003DC00310040F1000053EA4C0308BF20EADC7006
:1003EC00704792F0000F00F0004C02BF400010F478
:1003FC00000F013AF9D040EA0C0093F0000F01F025
:10040C00004C02BF490011F4000F013BF9D041EA46
:10041C000C018FE70CEAD15392EA0C0F18BF93EA48
:10042C000C0F0AD030F0004C18BF31F0004CD8D172
:10043C0080EA010000F00040704790F0000F17BFF9
:10044C0090F0004F084691F0000F91F0004F14D03F
:10045C0092EA0C0F01D142020FD193EA0C0F03D197
:10046C004B0218BF084608D180EA010000F000409A
:10047C0040F0FE4040F40000704740F0FE4040F475
:10048C00400070474FF0FF0C1CEAD0521EBF1CEA14
:10049C00D15392EA0C0F93EA0C0F69D0A2EB030232
:1004AC0080EA010C49024FEA402037D04FF08053CC
:1004BC0043EA111143EA10130CF000408B4238BF91
:1004CC005B0042F17D024FF4000C8B4224BF5B1A9F
:1004DC0040EA0C00B3EB510F24BFA3EB510340EAED
:1004EC005C00B3EB910F24BFA3EB910340EA9C009B
:1004FC00B3EBD10F24BFA3EBD10340EADC001B010B
:10050C0018BF5FEA1C1CE0D1FD2A3FF650AF8B42AE
:10051C0040EBC25008BF20F0010070470CF0004CBB
:10052C004CEA50207F32C2BFD2F1FF0340EAC250E6
:10053C00704740F400004FF00003013A37E792F0A7
:10054C00000F00F0004C02BF400010F4000F013A05
:10055C00F9D040EA0C0093F0000F01F0004C02BF00
:10056C00490011F4000F013BF9D041EA0C0195E769
:10057C000CEAD15392EA0C0F08D142027FF47DAF02
:10058C0093EA0C0F7FF470AF084676E793EA0C0FF2
:10059C0004D14B023FF44CAF08466EE730F0004CF0
:1005AC0018BF31F0004CCAD130F000427FF45CAF80
:1005BC0031F000437FF43CAF5FE700BF4FF0FF3CEE
:1005CC0006E000BF4FF0010C02E000BF4FF0010C41
:1005DC004DF804CD4FEA40024FEA41037FEA226C0A
:1005EC0018BF7FEA236C11D001B052EA530C18BF2C
:1005FC0090EA010F58BFB2EB030088BFC81738BF91
:10060C006FEAE17018BF40F0010070477FEA226C7E
:10061C0002D15FEA402C05D17FEA236CE4D15FEA7A
:10062C00412CE1D05DF8040B704700BF84460846AE
:10063C006146FFE70FB5FFF7C9FF002848BF10F16F
:10064C00000F0FBD4DF808EDFFF7F4FF0CBF0120B4
:10065C0000205DF808FB00BF4DF808EDFFF7EAFF3E
:10066C0034BF012000205DF808FB00BF4DF808EDF9
:10067C00FFF7E0FF94BF012000205DF808FB00BFEE
:10068C004DF808EDFFF7D2FF94BF012000205DF874
:10069C0008FB00BF4DF808EDFFF7C8FF34BF012081
:1006AC0000205DF808FB00BF4FEA40024FEA41030F
:1006BC007FEA226C02D15FEA402C08D17FEA236CDE
:1006CC0002D15FEA412C02D14FF0000070474FF08D
:1006DC00010070474FEA4002B2F1FE4F0FD34FF0CA
:1006EC009E03B3EB12620DD94FEA002343F0004393
:1006FC0010F0004F23FA02F018BF404270474FF041
:10070C000000704712F1610F01D1420205D110F0C7
:10071C00004008BF6FF0004070474FF0000070477A
:10072C007BB972B90029BEBF00204FF0004106E032
:10073C0008BF00281CBF6FF000414FF0FF3000F0E5
:10074C0057B8ADF1080C6DE904CE002909DB002B7C
:10075C001ADB09F02BFFDDF804E0DDE9022304B01D
:10076C007047404261EB4101002B1BDB09F01EFF7F
:10077C00DDF804E0DDE9022304B0404261EB410105
:10078C00524263EB43037047524263EB430309F05D
:10079C000DFFDDF804E0DDE9022304B0404261EB1B
:1007AC0041017047524263EB430309F0FFFEDDF851
:1007BC0004E0DDE9022304B0524263EB43037047CB
:1007CC0053B94AB9002908BF00281CBF4FF0FF31AC
:1007DC004FF0FF3000F00CB8ADF1080C6DE904CE11
:1007EC0009F0E4FEDDF804E0DDE9022304B0704713
:1007FC00704700BF10F8012B11F8013B012A28BFEC
:10080C009A42F7D0D01A7047034613F8012B002AEE
:10081C00FBD1181A013870470348044B834202D0AD
:10082C00034B03B11847704794000020940000203C
:10083C00000000000548064B1B1AD90F01EBA30161
:10084C00491002D0034B03B11847704794000020A5
:10085C00940000200000000010B5064C237843B92A
:10086C00FFF7DAFF044B13B10448AFF30080012308
:10087C00237010BD9800002000000000D0BB0008C1
:10088C0008B5054B1BB105490548AFF30080BDE821
:10089C000840FFF7CFBF00BF000000009C00002005
:1008AC00D0BB000880B400AF00BFBD4680BC704711
:1008BC0080B582B000AF78607B68002B01D101233A
:1008CC0041E07B6893F83D30DBB2002B06D17B68AE
:1008DC00002283F83C20786803F09CFB7B680222A2
:1008EC0083F83D207B681A687B68043319461046F0
:1008FC0000F018FC7B68012283F846207B680122FB
:10090C0083F83E207B68012283F83F207B6801221C
:10091C0083F840207B68012283F841207B68012208
:10092C0083F842207B68012283F843207B680122F4
:10093C0083F844207B68012283F845207B680122E0
:10094C0083F83D20002318460837BD4680BD0000C3
:10095C0080B485B000AF78607B6893F83D30DBB233
:10096C00012B01D001233AE07B68022283F83D2061
:10097C007B681B68DA687B681B6842F00102DA60EE
:10098C007B681B68184A93420ED07B681B68B3F1D6
:10099C00804F09D07B681B68144A934204D07B6853
:1009AC001B68134A934211D17B681B689B6803F048
:1009BC000703FB60FB68062B10D07B681B681A686A
:1009CC007B681B6842F001021A6007E07B681B68B9
:1009DC001A687B681B6842F001021A6000231846F3
:1009EC001437BD4680BC7047002C01400004004009
:1009FC000008004080B582B000AF78607B68002BA7
:100A0C0001D1012341E07B6893F83D30DBB2002B30
:100A1C0006D17B68002283F83C20786800F039F816
:100A2C007B68022283F83D207B681A687B6804335C
:100A3C001946104600F076FB7B68012283F84620AD
:100A4C007B68012283F83E207B68012283F83F20DB
:100A5C007B68012283F840207B68012283F84120C7
:100A6C007B68012283F842207B68012283F84320B3
:100A7C007B68012283F844207B68012283F845209F
:100A8C007B68012283F83D20002318460837BD46B9
:100A9C0080BD80B483B000AF786000BF0C37BD461A
:100AAC0080BC704780B584B000AF786039603B681B
:100ABC00002B09D17B6893F83E30DBB2012B14BFBD
:100ACC0001230023DBB222E03B68042B09D17B68B5
:100ADC0093F83F30DBB2012B14BF01230023DBB2B0
:100AEC0015E03B68082B09D17B6893F84030DBB2EA
:100AFC00012B14BF01230023DBB208E07B6893F8C1
:100B0C004130DBB2012B14BF01230023DBB2002BDD
:100B1C0001D001235EE03B68002B04D17B680222EC
:100B2C0083F83E2013E03B68042B04D17B6802223F
:100B3C0083F83F200BE03B68082B04D17B68022232
:100B4C0083F8402003E07B68022283F841207B6815
:100B5C001B6801223968184600F070FD7B681B6821
:100B6C001E4A934207D17B681B685A6C7B681B68D2
:100B7C0042F400425A647B681B68184A93420ED0B8
:100B8C007B681B68B3F1804F09D07B681B68144AE3
:100B9C00934204D07B681B68124A934211D17B6844
:100BAC001B689B6803F00703FB60FB68062B10D0E7
:100BBC007B681B681A687B681B6842F001021A602C
:100BCC0007E07B681B681A687B681B6842F00102AF
:100BDC001A60002318461037BD4680BD002C01401A
:100BEC00000400400008004080B584B000AF78607D
:100BFC007B681B68DB68FB607B681B681B69BB60E0
:100C0C00BB6803F00203002B20D0FB6803F0020347
:100C1C00002B1BD07B681B686FF002021A617B688B
:100C2C0001221A777B681B689B6903F00303002B76
:100C3C0003D0786800F05AFA05E0786800F04DFAB5
:100C4C00786800F05CFA7B6800221A77BB6803F0C6
:100C5C000403002B20D0FB6803F00403002B1BD0F3
:100C6C007B681B686FF004021A617B6802221A779A
:100C7C007B681B689B6903F44073002B03D0786876
:100C8C0000F034FA05E0786800F027FA786800F094
:100C9C0036FA7B6800221A77BB6803F00803002B36
:100CAC0020D0FB6803F00803002B1BD07B681B686B
:100CBC006FF008021A617B6804221A777B681B6844
:100CCC00DB6903F00303002B03D0786800F00EFA05
:100CDC0005E0786800F001FA786800F010FA7B689B
:100CEC0000221A77BB6803F01003002B20D0FB689E
:100CFC0003F01003002B1BD07B681B686FF01002F5
:100D0C001A617B6808221A777B681B68DB6903F41D
:100D1C004073002B03D0786800F0E8F905E07868A0
:100D2C0000F0DBF9786800F0EAF97B6800221A77AA
:100D3C00BB6803F00103002B0CD0FB6803F001032C
:100D4C00002B07D07B681B686FF001021A61786872
:100D5C0003F0FCFBBB6803F08003002B0CD0FB689A
:100D6C0003F08003002B07D07B681B686FF08002B8
:100D7C001A61786800F03EFDBB6803F04003002B5D
:100D8C000CD0FB6803F04003002B07D07B681B687A
:100D9C006FF040021A61786800F0BAF9BB6803F092
:100DAC002003002B0CD0FB6803F02003002B07D092
:100DBC007B681B686FF020021A61786800F011FDE7
:100DCC0000BF1037BD4680BD80B586B000AFF8605F
:100DDC00B9607A600023FB75FB6893F83C30012BFB
:100DEC0001D10223AEE0FB68012283F83C207B6832
:100DFC000C2B00F29F8001A252F823F03D0E00084C
:100E0C00410F0008410F0008410F00087D0E00083B
:100E1C00410F0008410F0008410F0008BF0E0008E9
:100E2C00410F0008410F0008410F0008FF0E000899
:100E3C00FB681B68B968184600F0E2F9FB681B6890
:100E4C009A69FB681B6842F008029A61FB681B6890
:100E5C009A69FB681B6822F004029A61FB681B68A4
:100E6C009969BB681A69FB681B680A439A6164E05C
:100E7C00FB681B68B968184600F028FAFB681B6809
:100E8C009A69FB681B6842F400629A61FB681B68F4
:100E9C009A69FB681B6822F480629A61FB681B6884
:100EAC009969BB681B691A02FB681B680A439A6143
:100EBC0043E0FB681B68B968184600F071FAFB68E0
:100ECC001B68DA69FB681B6842F00802DA61FB6890
:100EDC001B68DA69FB681B6822F00402DA61FB68A4
:100EEC001B68D969BB681A69FB681B680A43DA611D
:100EFC0023E0FB681B68B968184600F0BBFAFB6876
:100F0C001B68DA69FB681B6842F40062DA61FB68F3
:100F1C001B68DA69FB681B6822F48062DA61FB6883
:100F2C001B68D969BB681B691A02FB681B680A43FA
:100F3C00DA6102E00123FB7500BFFB68002283F835
:100F4C003C20FB7D18461837BD4680BD80B584B06B
:100F5C0000AF786039600023FB737B6893F83C30FA
:100F6C00012B01D10223B4E07B68012283F83C20E1
:100F7C007B68022283F83D207B681B689B68BB6002
:100F8C00BB6823F07703BB60BB6823F47F43BB6073
:100F9C007B681B68BA689A603B681B68B3F5005F96
:100FAC003ED0B3F5005F00F28780B3F5805F00F0B0
:100FBC008680B3F5805F7FD8702B1AD0702B7BD8CE
:100FCC00602B50D0602B77D8502B3CD0502B73D843
:100FDC00402B58D0402B6FD8302B64D0302B6BD893
:100FEC00202B60D0202B67D8002B5CD0102B5AD034
:100FFC0062E07B6818683B6899683B685A683B6894
:10100C00DB6800F0FCFA7B681B689B68BB60BB6804
:10101C0043F07703BB607B681B68BA689A604FE04B
:10102C007B6818683B6899683B685A683B68DB6862
:10103C0000F0E5FA7B681B689A687B681B6842F4D1
:10104C0080429A603CE07B6818683B6859683B6852
:10105C00DB681A4600F05CFA7B681B685021184666
:10106C0000F0B3FA2CE07B6818683B6859683B6861
:10107C00DB681A4600F07AFA7B681B686021184618
:10108C0000F0A3FA1CE07B6818683B6859683B6861
:10109C00DB681A4600F03CFA7B681B684021184656
:1010AC0000F093FA0CE07B681A683B681B681946E1
:1010BC00104600F08AFA03E00123FB7300E000BF46
:1010CC007B68012283F83D207B68002283F83C205A
:1010DC00FB7B18461037BD4680BD80B483B000AF93
:1010EC00786000BF0C37BD4680BC704780B483B0BD
:1010FC0000AF786000BF0C37BD4680BC704780B431
:10110C0083B000AF786000BF0C37BD4680BC704721
:10111C0080B483B000AF786000BF0C37BD4680BC94
:10112C007047000080B485B000AF786039607B6890
:10113C001B68FB607B682F4A93420BD07B68B3F132
:10114C00804F07D07B682C4A934203D07B682B4A94
:10115C00934208D1FB6823F07003FB603B685B682B
:10116C00FA681343FB607B68224A93420BD07B687E
:10117C00B3F1804F07D07B681F4A934203D07B6842
:10118C001E4A934208D1FB6823F44073FB603B6812
:10119C00DB68FA681343FB60FB6823F080023B6852
:1011AC005B691343FB607B68FA681A603B689A685A
:1011BC007B68DA623B681A687B689A627B680D4AC6
:1011CC00934203D13B681A697B681A637B680122DE
:1011DC005A617B681B6903F00103002B05D07B6807
:1011EC001B6923F001027B681A6100BF1437BD46EE
:1011FC0080BC7047002C01400004004000080040F7
:10120C0080B487B000AF786039607B681B6A7B6103
:10121C007B681B6A23F001027B681A627B685B683F
:10122C003B617B689B69FB60FB6823F07003FB6090
:10123C00FB6823F00303FB603B681B68FA681343ED
:10124C00FB607B6923F002037B613B689B687A69D6
:10125C0013437B617B681C4A93420CD17B6923F05E
:10126C0008037B613B68DB687A6913437B617B69AC
:10127C0023F004037B617B68134A934211D13B69D1
:10128C0023F480733B613B6923F400733B613B683F
:10129C005B693A6913433B613B689B693A69134349
:1012AC003B617B683A695A607B68FA689A613B6873
:1012BC005A687B685A637B687A691A6200BF1C376C
:1012CC00BD4680BC704700BF002C014080B487B085
:1012DC0000AF786039607B681B6A7B617B681B6A36
:1012EC0023F010027B681A627B685B683B617B6849
:1012FC009B69FB60FB6823F4E043FB60FB6823F411
:10130C004073FB603B681B681B02FA681343FB606D
:10131C007B6923F020037B613B689B681B017A6926
:10132C0013437B617B681D4A93420DD17B6923F08B
:10133C0080037B613B68DB681B017A6913437B612B
:10134C007B6923F040037B617B68144A934213D181
:10135C003B6923F480633B613B6923F400633B618D
:10136C003B685B699B003A6913433B613B689B6933
:10137C009B003A6913433B617B683A695A607B680E
:10138C00FA689A613B685A687B689A637B687A69E9
:10139C001A6200BF1C37BD4680BC7047002C014050
:1013AC0080B487B000AF786039607B681B6A7B6162
:1013BC007B681B6A23F480727B681A627B685B68AB
:1013CC003B617B68DB69FB60FB6823F07003FB60AF
:1013DC00FB6823F00303FB603B681B68FA6813434C
:1013EC00FB607B6923F400737B613B689B681B0289
:1013FC007A6913437B617B681D4A93420DD17B69EB
:10140C0023F400637B613B68DB681B027A6913433E
:10141C007B617B6923F480637B617B68144A934214
:10142C0013D13B6923F480533B613B6923F4005394
:10143C003B613B685B691B013A6913433B613B6849
:10144C009B691B013A6913433B617B683A695A609B
:10145C007B68FA68DA613B685A687B68DA637B6898
:10146C007A691A6200BF1C37BD4680BC704700BF4A
:10147C00002C014080B487B000AF786039607B6885
:10148C001B6A3B617B681B6A23F480527B681A627F
:10149C007B685B687B617B68DB69FB60FB6823F4C2
:1014AC00E043FB60FB6823F44073FB603B681B6804
:1014BC001B02FA681343FB603B6923F400533B6146
:1014CC003B689B681B033A6913433B617B680F4A7B
:1014DC00934209D17B6923F480437B613B685B6950
:1014EC009B017A6913437B617B687A695A607B68DC
:1014FC00FA68DA613B685A687B681A647B683A69F7
:10150C001A6200BF1C37BD4680BC7047002C0140DE
:10151C0080B487B000AFF860B9607A60FB681B6A72
:10152C007B61FB681B6A23F00102FB681A62FB6893
:10153C009B693B613B6923F0F0033B617B681B01BA
:10154C003A6913433B617B6923F00A037B617A6937
:10155C00BB6813437B61FB683A699A61FB687A69E3
:10156C001A6200BF1C37BD4680BC704780B487B080
:10157C0000AFF860B9607A60FB681B6A7B61FB683E
:10158C001B6A23F01002FB681A62FB689B693B61C3
:10159C003B6923F470433B617B681B033A6913433B
:1015AC003B617B6923F0A0037B61BB681B017A69FB
:1015BC0013437B61FB683A699A61FB687A691A622A
:1015CC0000BF1C37BD4680BC704780B485B000AFEF
:1015DC00786039607B689B68FB60FB6823F0700364
:1015EC00FB603A68FB68134343F00703FB607B68BE
:1015FC00FA689A6000BF1437BD4680BC704780B44F
:10160C0087B000AFF860B9607A603B60FB689B689C
:10161C007B617B6923F47F437B613B681A027B68A7
:10162C001A43BB6813437A6913437B61FB687A697D
:10163C009A6000BF1C37BD4680BC704780B487B031
:10164C0000AFF860B9607A60BB6803F01F03012239
:10165C0002FA03F37B61FB681A6A7B69DB431A406D
:10166C00FB681A62FB681A6ABB6803F01F0379688F
:10167C0001FA03F31A43FB681A6200BF1C37BD461C
:10168C0080BC704780B485B000AF786039607B68EF
:10169C0093F83C30012B01D1022346E07B680122F8
:1016AC0083F83C207B68022283F83D207B681B6812
:1016BC005B68FB607B681B689B68BB60FB6823F006
:1016CC007003FB603B681B68FA681343FB607B6824
:1016DC001B68FA685A607B681B68164A93420ED0E6
:1016EC007B681B68B3F1804F09D07B681B68124A7A
:1016FC00934204D07B681B68104A93420CD1BB68A0
:10170C0023F08003BB603B685B68BA681343BB6023
:10171C007B681B68BA689A607B68012283F83D205D
:10172C007B68002283F83C20002318461437BD4602
:10173C0080BC7047002C01400004004000080040B1
:10174C0080B485B000AF786039600023FB607B68A3
:10175C0093F83C30012B01D102233DE07B68012240
:10176C0083F83C20FB6823F0FF023B68DB681343E3
:10177C00FB60FB6823F440723B689B681343FB607F
:10178C00FB6823F480623B685B681343FB60FB6877
:10179C0023F400623B681B681343FB60FB6823F473
:1017AC0080523B681B691343FB60FB6823F40052B7
:1017BC003B685B691343FB60FB6823F480423B6826
:1017CC00DB691343FB607B681B68FA685A647B68AF
:1017DC00002283F83C20002318461437BD4680BCF9
:1017EC00704780B483B000AF786000BF0C37BD4643
:1017FC0080BC704780B483B000AF786000BF0C37FA
:10180C00BD4680BC7047000080B500AF084B1B681C
:10181C00074A43F010031360032001F089F90020FC
:10182C0000F008F802F0C0FD0023184680BD00BF90
:10183C000020024080B582B000AF7860124B1A686D
:10184C00124B1B7819464FF47A73B3FBF1F3B2FBCE
:10185C00F3F3184601F0A1F90346002B01D0012344
:10186C000EE07B680F2B0AD8002279684FF0FF300E
:10187C0001F069F9064A7B681360002300E001233C
:10188C0018460837BD4680BD000000200800002027
:10189C000400002080B400AF054B1B781A46054BA2
:1018AC001B681344034A136000BFBD4680BC7047DD
:1018BC0008000020B400002080B400AF024B1B686D
:1018CC001846BD4680BC7047B400002080B586B079
:1018DC0000AF78607B68002B01D1012372E27B683A
:1018EC001B6803F00103002B00F08780924B5B68B0
:1018FC0003F00C03042B0CD08F4B5B6803F00C0330
:10190C00082B12D18C4B5B6803F48033B3F5803F0A
:10191C000BD1894B1B6803F40033002B6CD07B6814
:10192C005B68002B68D101234CE27B685B68B3F5E4
:10193C00803F06D1804B1B687F4A43F48033136091
:10194C002EE07B685B68002B0CD17B4B1B687A4AC2
:10195C0023F480331360784B1B68774A23F480237D
:10196C0013601DE07B685B68B3F5A02F0CD1724B44
:10197C001B68714A43F4802313606F4B1B686E4ADB
:10198C0043F4803313600BE06B4B1B686A4A23F4FF
:10199C0080331360684B1B68674A23F48023136001
:1019AC007B685B68002B13D0FFF786FF386108E07B
:1019BC00FFF782FF02463B69D31A642B01D903233C
:1019CC0000E25D4B1B6803F40033002BF0D014E0F5
:1019DC00FFF772FF386108E0FFF76EFF02463B69C4
:1019EC00D31A642B01D90323ECE1534B1B6803F48A
:1019FC000033002BF0D100E000BF7B681B6803F0C4
:101A0C000203002B63D04C4B5B6803F00C03002BE0
:101A1C000BD0494B5B6803F00C03082B1CD1464BD5
:101A2C005B6803F48033002B16D1434B1B6803F027
:101A3C000203002B05D07B681B69012B01D001230D
:101A4C00C0E13D4B1B6823F0F8027B685B69DB004F
:101A5C00394913430B603AE07B681B69002B20D09B
:101A6C00364B01221A60FFF727FF386108E0FFF7B9
:101A7C0023FF02463B69D31A022B01D90323A1E1B0
:101A8C002D4B1B6803F00203002BF0D02A4B1B6874
:101A9C0023F0F8027B685B69DB00274913430B607A
:101AAC0015E0264B00221A60FFF706FF386108E0AC
:101ABC00FFF702FF02463B69D31A022B01D903231D
:101ACC0080E11D4B1B6803F00203002BF0D17B68F7
:101ADC001B6803F00803002B3AD07B689B69002B32
:101AEC0019D0174B01221A60FFF7E6FE386108E0A7
:101AFC00FFF7E2FE02463B69D31A022B01D90323FE
:101B0C0060E10D4B5B6A03F00203002BF0D0012067
:101B1C0000F0CEFA1CE00A4B00221A60FFF7CCFE54
:101B2C0038610FE0FFF7C8FE02463B69D31A022B5F
:101B3C0008D9032346E100BF0010024000004242D6
:101B4C0080044242924B5B6A03F00203002BE9D102
:101B5C007B681B6803F00403002B00F0A6800023B5
:101B6C00FB758B4BDB6903F08053002B0DD1884B3D
:101B7C00DB69874A43F08053D361854BDB6903F003
:101B8C008053BB60BB680123FB75824B1B6803F45D
:101B9C008073002B18D17F4B1B687E4A43F48073F3
:101BAC001360FFF789FE386108E0FFF785FE0246F7
:101BBC003B69D31A642B01D9032303E1754B1B68D2
:101BCC0003F48073002BF0D07B68DB68012B06D10B
:101BDC006F4B1B6A6E4A43F0010313622DE07B6866
:101BEC00DB68002B0CD16A4B1B6A694A23F001039A
:101BFC001362674B1B6A664A23F0040313621CE0F2
:101C0C007B68DB68052B0CD1614B1B6A604A43F087
:101C1C00040313625E4B1B6A5D4A43F001031362BB
:101C2C000BE05B4B1B6A5A4A23F001031362584BBF
:101C3C001B6A574A23F0040313627B68DB68002B92
:101C4C0015D0FFF739FE38610AE0FFF735FE024682
:101C5C003B69D31A41F28832934201D90323B1E094
:101C6C004B4B1B6A03F00203002BEED014E0FFF782
:101C7C0023FE38610AE0FFF71FFE02463B69D31AC8
:101C8C0041F28832934201D903239BE0404B1B6AFB
:101C9C0003F00203002BEED1FB7D012B05D13C4B55
:101CAC00DB693B4A23F08053D3617B68DB69002BF3
:101CBC0000F08780364B5B6803F00C03082B61D077
:101CCC007B68DB69022B46D1334B00221A60FFF78D
:101CDC00F3FD386108E0FFF7EFFD02463B69D31ACC
:101CEC00022B01D903236DE0294B1B6803F0007311
:101CFC00002BF0D17B681B6AB3F5803F08D1244BD5
:101D0C005B6823F400327B689B68214913434B606A
:101D1C001F4B5B6823F474127B68196A7B685B6ADF
:101D2C000B431B4913434B601B4B01221A60FFF7FB
:101D3C00C3FD386108E0FFF7BFFD02463B69D31ACB
:101D4C00022B01D903233DE0114B1B6803F00073F8
:101D5C00002BF0D035E0104B00221A60FFF7ACFDE1
:101D6C00386108E0FFF7A8FD02463B69D31A022B45
:101D7C0001D9032326E0064B1B6803F00073002BEC
:101D8C00F0D11EE07B68DB69012B07D1012319E040
:101D9C000010024000700040600042420B4B5B6838
:101DAC00FB60FB6803F480327B681B6A9A4206D1A5
:101DBC00FB6803F470127B685B6A9A4201D00123C2
:101DCC0000E0002318461837BD4680BD00100240C5
:101DDC0080B584B000AF786039607B68002B01D18E
:101DEC000123D0E06A4B1B6803F007033A689A4260
:101DFC0010D9674B1B6823F0070265493B681343F6
:101E0C000B60634B1B6803F007033A689A4201D0DE
:101E1C000123B8E07B681B6803F00203002B20D081
:101E2C007B681B6803F00403002B05D0594B5B68DF
:101E3C00584A43F4E06353607B681B6803F0080363
:101E4C00002B05D0534B5B68524A43F460535360EC
:101E5C00504B5B6823F0F0027B689B684D49134341
:101E6C004B607B681B6803F00103002B40D07B6840
:101E7C005B68012B07D1474B1B6803F40033002B25
:101E8C0015D101237FE07B685B68022B07D1414BA6
:101E9C001B6803F00073002B09D1012373E03D4B49
:101EAC001B6803F00203002B01D101236BE0394BBB
:101EBC005B6823F003027B685B68364913434B6015
:101ECC00FFF7FAFCF8600AE0FFF7F6FC0246FB6845
:101EDC00D31A41F28832934201D9032353E02D4B9C
:101EEC005B6803F00C027B685B689B009A42EBD149
:101EFC00274B1B6803F007033A689A4210D2244B15
:101F0C001B6823F0070222493B6813430B60204BEC
:101F1C001B6803F007033A689A4201D0012332E0B0
:101F2C007B681B6803F00403002B08D0194B5B681B
:101F3C0023F4E0627B68DB68164913434B607B68D3
:101F4C001B6803F00803002B09D0124B5B6823F4C9
:101F5C0060527B681B69DB000E4913434B6000F039
:101F6C0021F802460B4B5B681B0903F00F030A496F
:101F7C00CB5C22FA03F3094A1360094B1B68184621
:101F8C00FFF758FC002318461037BD4680BD00BF34
:101F9C00002002400010024034C100080000002064
:101FAC000400002080B487B000AF0023FB60002346
:101FBC00BB6000237B6100237B6000233B611E4BD5
:101FCC005B68FB60FB6803F00C03042B02D0082B4E
:101FDC0003D027E0194B3B6127E0FB689B0C03F017
:101FEC000F03174AD35C7B60FB6803F48033002B30
:101FFC0010D0114B5B685B0C03F00103114AD35CEE
:10200C00BB607B680D4A03FB02F2BB68B2FBF3F3C7
:10201C007B6104E07B680C4A02FB03F37B617B6908
:10202C003B6102E0054B3B6100BF3B6918461C3726
:10203C00BD4680BC704700BF0010024000127A0001
:10204C004CC100085CC1000800093D0080B400AF21
:10205C00024B1B681846BD4680BC70470000002030
:10206C0080B500AFFFF7F2FF0246054B5B681B0A19
:10207C0003F007030349CB5C22FA03F3184680BD37
:10208C000010024044C1000880B500AFFFF7DEFF2E
:10209C000246054B5B68DB0A03F007030349CB5C84
:1020AC0022FA03F3184680BD0010024044C1000818
:1020BC0080B485B000AF78600A4B1B680A4AA2FB5B
:1020CC0003235B0A7A6802FB03F3FB6000BFFB6827
:1020DC005A1EFA60002BF9D100BF00BF1437BD4661
:1020EC0080BC704700000020D34D621080B48BB0D0
:1020FC0000AF7860396000237B6200233B6269E1AA
:10210C0001227B6A02FA03F3FB613B681B68FA69E4
:10211C001340BB61BA69FB699A4240F058813B6835
:10212C005B689A4A93425ED0984A934275D8984A13
:10213C00934258D0964A93426FD8964A934252D0C3
:10214C00944A934269D8944A93424CD0924A93420F
:10215C0063D8924A934246D0904A93425DD8122B50
:10216C002AD8122B59D801A252F823F0F3210008D7
:10217C00CD210008DF2100082122000827220008B9
:10218C0027220008272200082722000827220008FF
:10219C0027220008272200082722000827220008EF
:1021AC0027220008272200082722000827220008DF
:1021BC00D5210008E9210008794A934213D02CE07C
:1021CC003B68DB683B6229E03B68DB6804333B62BD
:1021DC0024E03B68DB6808333B621FE03B68DB684C
:1021EC000C333B621AE03B689B68002B02D1042342
:1021FC003B6213E03B689B68012B05D108233B62D3
:10220C007B68FA691A6109E008233B627B68FA690A
:10221C005A6103E000233B6200E000BFBB69FF2B67
:10222C0001D87B6801E07B6804337B61BB69FF2BC1
:10223C0002D87B6A9B0002E07B6A083B9B003B61F7
:10224C007B691A680F213B6901FA03F3DB431A40DF
:10225C00396A3B6901FA03F31A437B691A603B68DC
:10226C005B6803F08053002B00F0B1804D4B9B69F1
:10227C004C4A43F0010393614A4B9B6903F0010301
:10228C00BB60BB68484A7B6A9B08023352F8233018
:10229C00FB607B6A03F003039B000F2202FA03F33B
:1022AC00DB43FA681340FB607B68404A934213D0CF
:1022BC007B683F4A93420DD07B683E4A934207D0DD
:1022CC007B683D4A934201D1032306E0042304E0DA
:1022DC00022302E0012300E000237A6A02F00302E9
:1022EC0092009340FA681343FB602F497B6A9B086A
:1022FC000233FA6841F823203B685B6803F48013CF
:10230C00002B06D02D4B9A682C49BB6913438B606C
:10231C0006E02A4B9A68BB69DB43284913408B6063
:10232C003B685B6803F40013002B06D0234BDA6880
:10233C002249BB691343CB6006E0204BDA68BB69CA
:10234C00DB431E491340CB603B685B6803F40033EE
:10235C00002B06D0194B5A681849BB6913434B60C4
:10236C0006E0164B5A68BB69DB43144913404B60BB
:10237C003B685B6803F48033002B21D00F4B1A6849
:10238C000E49BB6913430B6021E000BF0000321003
:10239C00000031100000221000002110000012106B
:1023AC000000111000100240000001400008014024
:1023BC00000C0140001001400014014000040140D9
:1023CC000B4B1A68BB69DB43094913400B607B6AF2
:1023DC0001337B623B681A687B6A22FA03F3002B99
:1023EC007FF48EAE00BF00BF2C37BD4680BC70475B
:1023FC000004014080B485B000AF78600B467B8050
:10240C007B689A687B881340002B02D00123FB73F6
:10241C0001E00023FB73FB7B18461437BD4680BCE0
:10242C00704780B483B000AF78600B467B80134656
:10243C007B707B78002B03D07A887B681A6103E071
:10244C007B881A047B681A6100BF0C37BD4680BCC0
:10245C007047000080B485B000AF78600023FB604B
:10246C007B68002B01D1012343E07B681B681A4673
:10247C00224B1344224AA2FB03231B099A007B68BC
:10248C001A647B681F4ADA637B68022283F8212076
:10249C007B681B681B68FB60FB6823F47F5323F08D
:1024AC003003FB607B685A687B689B681A437B68C7
:1024BC00DB681A437B681B691A437B685B691A43A8
:1024CC007B689B691A437B68DB691343FA68134387
:1024DC00FB607B681B68FA681A607B6800229A6351
:1024EC007B68012283F821207B68002283F820205E
:1024FC00002318461437BD4680BC7047F8FFFDBF5B
:10250C00CDCCCCCC0000024080B586B000AFF860DA
:10251C00B9607A603B600023FB75FB6893F8203050
:10252C00012B01D102234BE0FB68012283F8202010
:10253C00FB6893F82130DBB2012B3AD1FB68022205
:10254C0083F82120FB6800229A63FB681B681A68D9
:10255C00FB681B6822F001021A603B687A68B96854
:10256C00F86800F0EBF9FB68DB6A002B08D0FB681D
:10257C001B681A68FB681B6842F00E021A600FE0B9
:10258C00FB681B681A68FB681B6822F004021A605F
:10259C00FB681B681A68FB681B6842F00A021A6029
:1025AC00FB681B681A68FB681B6842F001021A6022
:1025BC0005E0FB68002283F820200223FB75FB7DDD
:1025CC0018461837BD4680BD80B485B000AF786022
:1025DC000023FB737B6893F82130DBB2022B08D00D
:1025EC007B6804229A637B68002283F820200123F5
:1025FC0020E07B681B681A687B681B6822F00E025F
:10260C001A607B681B681A687B681B6822F00102E1
:10261C001A607B681A6C7B68DB6B012101FA02F291
:10262C005A607B68012283F821207B68002283F8A2
:10263C002020FB7B18461437BD4680BC7047000039
:10264C0080B584B000AF78600023FB737B6893F88F
:10265C002130DBB2022B05D07B6804229A63012364
:10266C00FB7351E07B681B681A687B681B6822F05F
:10267C000E021A607B681B681A687B681B6822F064
:10268C0001021A607B681B68224A934229D07B683E
:10269C001B68214A934222D07B681B681F4A9342D5
:1026AC001AD07B681B681E4A934212D07B681B6849
:1026BC001C4A93420AD07B681B681B4A934202D186
:1026CC004FF480130EE04FF080730BE04FF4803327
:1026DC0008E04FF4805305E04FF4807302E01023C0
:1026EC0000E00123114A53607B68012283F821200A
:1026FC007B68002283F820207B685B6B002B03D067
:10270C007B685B6B78689847FB7B18461037BD4637
:10271C0080BD00BF080002401C0002403000024097
:10272C0044000240580002406C000240000002408D
:10273C0080B584B000AF78607B68DB6B1B68FB6096
:10274C007B681B681B68BB607B681B6C04229A400F
:10275C00FB681340002B4FD0BB6803F00403002B25
:10276C004AD07B681B681B6803F02003002B07D141
:10277C007B681B681A687B681B6822F004021A606D
:10278C007B681B68664A934229D07B681B68654A44
:10279C00934222D07B681B68634A93421AD07B68B1
:1027AC001B68624A934212D07B681B68604A934252
:1027BC000AD07B681B685F4A934202D14FF48003B6
:1027CC000EE04FF080630BE04FF4802308E04FF4F1
:1027DC00804305E04FF4806302E0402300E00423D3
:1027EC00554A53607B68DB6A002B00F094807B6851
:1027FC00DB6A786898478EE07B681B6C02229A40F3
:10280C00FB681340002B56D0BB6803F00203002B6F
:10281C0051D07B681B681B6803F02003002B0BD185
:10282C007B681B681A687B681B6822F00A021A60B6
:10283C007B68012283F821207B681B68384A93420D
:10284C0029D07B681B68374A934222D07B681B686F
:10285C00354A93421AD07B681B68344A934212D093
:10286C007B681B68324A93420AD07B681B68314AEA
:10287C00934202D14FF400130EE04FF000730BE0C3
:10288C004FF4003308E04FF4005305E04FF40073AD
:10289C0002E0202300E00223274A53607B680022D9
:1028AC0083F820207B689B6A002B34D07B689B6A62
:1028BC00786898472FE07B681B6C08229A40FB686D
:1028CC001340002B28D0BB6803F00803002B23D047
:1028DC007B681B681A687B681B6822F00E021A6002
:1028EC007B681A6C7B68DB6B012101FA02F25A607F
:1028FC007B6801229A637B68012283F821207B6824
:10290C00002283F820207B681B6B002B04D07B6893
:10291C001B6B7868984700BF00BF1037BD4680BD61
:10292C00080002401C0002403000024044000240FB
:10293C00580002406C0002400000024080B485B098
:10294C0000AFF860B9607A603B60FB681A6CFB689A
:10295C00DB6B012101FA02F25A60FB681B683A68D2
:10296C005A60FB685B68102B08D1FB681B687A689F
:10297C009A60FB681B68BA68DA6007E0FB681B6842
:10298C00BA689A60FB681B687A68DA6000BF143713
:10299C00BD4680BC7047000080B485B000AF786045
:1029AC007B6803F00703FB600C4BDB68BB60BA6809
:1029BC004FF6FF031340BB60FB681A02BB6813435E
:1029CC0043F0BF6343F40033BB60044ABB68D3607D
:1029DC0000BF1437BD4680BC704700BF00ED00E05F
:1029EC0080B400AF044BDB681B0A03F007031846E6
:1029FC00BD4680BC704700BF00ED00E080B483B0E2
:102A0C0000AF0346FB7197F90730002B0BDBFB790A
:102A1C0003F01F02064997F907305B09012000FA01
:102A2C0002F241F8232000BF0C37BD4680BC704732
:102A3C0000E100E080B483B000AF03463960FB7165
:102A4C0097F90730002B0ADB3B68DAB20C4997F98F
:102A5C0007301201D2B20B4483F800230AE03B6822
:102A6C00DAB20849FB7903F00F03043B1201D2B22E
:102A7C000B441A7600BF0C37BD4680BC704700BFB4
:102A8C0000E100E000ED00E080B489B000AFF86038
:102A9C00B9607A60FB6803F00703FB61FB69C3F163
:102AAC000703042B28BF0423BB61FB690433062BEB
:102ABC0002D9FB69033B00E000237B614FF0FF323E
:102ACC00BB6902FA03F3DA43BB681A407B699A408C
:102ADC004FF0FF317B6901FA03F3D9437B680B405C
:102AEC00134318462437BD4680BC704780B582B06E
:102AFC0000AF78607B68013BB3F1807F01D3012389
:102B0C000FE00A4A7B68013B53600F214FF0FF3006
:102B1C00FFF790FF054B00229A60044B07221A60C6
:102B2C00002318460837BD4680BD00BF10E000E00A
:102B3C0080B582B000AF78607868FFF72DFF00BFDA
:102B4C000837BD4680BD80B586B000AF0346B9607E
:102B5C007A60FB7300237B61FFF742FF78617A6830
:102B6C00B9687869FFF790FF024697F90F30114664
:102B7C001846FFF75FFF00BF1837BD4680BD80B514
:102B8C0082B000AF0346FB7197F907301846FFF788
:102B9C0035FF00BF0837BD4680BD80B582B000AFA1
:102BAC0078607868FFF7A2FF034618460837BD46E1
:102BBC0080BD80B582B000AF78607B68002B01D1FE
:102BCC00012342E07B6893F84130DBB2002B06D145
:102BDC007B68002283F84020786801F0E7FA7B6874
:102BEC00242283F841207B681B68DA687B681B68A9
:102BFC0022F40052DA60786800F038FF7B681B68BA
:102C0C001A697B681B6822F490421A617B681B6806
:102C1C005A697B681B6822F02A025A617B681B6820
:102C2C00DA687B681B6842F40052DA607B68002229
:102C3C005A647B68202283F841207B68202283F829
:102C4C0042207B6800225A63002318460837BD4691
:102C5C0080BD000080B58CB000AFF860B960134641
:102C6C00FB80FB6893F84130DBB2202B56D1BB685C
:102C7C00002B02D0FB88002B01D101234FE0BA6856
:102C8C00FB681A62FB68FA889A84FB68FA88DA8413
:102C9C00FB6800225A64FB68212283F84120FB6800
:102CAC009B6B214A9A62FB689B6B204ADA62FB6839
:102CBC009B6B1F4A1A63FB689B6B00225A6307F1DC
:102CCC000803FB62FB68986BFB6A1968FB681B685E
:102CDC0004331A46FB88FFF717FCFB681B686FF080
:102CEC0040021A60FB681B681433BB61BB6953E874
:102CFC00003F7B617B6943F08003BB62FB681B6810
:102D0C001433BA6A7A623B62396A7A6A41E8002300
:102D1C00FB61FB69002BE5D1002300E00223184680
:102D2C003037BD4680BD00BF0F330008A933000803
:102D3C002D35000880B584B000AFF860B96013463B
:102D4C00FB80FB6893F84230DBB2202B12D1BB68BE
:102D5C00002B02D0FB88002B01D101230BE0FB6878
:102D6C0000221A63FB881A46B968F86800F022FC46
:102D7C00034600E0022318461037BD4680BD000014
:102D8C0080B5BAB000AF78607B681B681B68C7F869
:102D9C00E4307B681B68DB68C7F8E0307B681B6835
:102DAC005B69C7F8DC300023C7F8D8300023C7F8BC
:102DBC00D430D7F8E43003F00F03C7F8D830D7F885
:102DCC00D830002B0FD1D7F8E43003F02003002BC0
:102DDC0009D0D7F8E03003F02003002B03D078683B
:102DEC0000F086FD5BE2D7F8D830002B00F0DE80D7
:102DFC00D7F8DC3003F00103002B06D1D7F8E03014
:102E0C0003F49073002B00F0D180D7F8E43003F07A
:102E1C000103002B0BD0D7F8E03003F48073002BA8
:102E2C0005D07B685B6C43F001027B685A64D7F871
:102E3C00E43003F00403002B0BD0D7F8DC3003F0A4
:102E4C000103002B05D07B685B6C43F002027B68AE
:102E5C005A64D7F8E43003F00203002B0BD0D7F8F8
:102E6C00DC3003F00103002B05D07B685B6C43F076
:102E7C0004027B685A64D7F8E43003F00803002B93
:102E8C0011D0D7F8E03003F02003002B05D1D7F890
:102E9C00DC3003F00103002B05D07B685B6C43F046
:102EAC0008027B685A647B685B6C002B00F0F28133
:102EBC00D7F8E43003F02003002B08D0D7F8E0302B
:102ECC0003F02003002B02D0786800F011FD7B6822
:102EDC001B685B6903F04003002B14BF0123002324
:102EEC00DBB2C7F8D4307B685B6C03F00803002BB3
:102EFC0003D1D7F8D430002B4FD0786800F01BFCEE
:102F0C007B681B685B6903F04003002B41D07B6836
:102F1C001B681433C7F89C30D7F89C3053E8003F3B
:102F2C00C7F89830D7F8983023F04003C7F8D03062
:102F3C007B681B681433D7F8D020C7F8A820C7F8D3
:102F4C00A430D7F8A410D7F8A82041E80023C7F87C
:102F5C00A030D7F8A030002BD9D17B68DB6B002BCD
:102F6C0013D07B68DB6B7E4A5A637B68DB6B18463D
:102F7C00FFF766FB0346002B16D07B68DB6B5B6BA5
:102F8C007A68D26B104698470EE0786800F0A5F985
:102F9C000AE0786800F0A1F906E0786800F09DF985
:102FAC007B6800225A6475E100BF73E17B681B6B80
:102FBC00012B40F04F81D7F8E43003F01003002BC5
:102FCC0000F04881D7F8E03003F01003002B00F03C
:102FDC0041810023BB607B681B681B68BB607B68FE
:102FEC001B685B68BB60BB687B681B685B6903F034
:102FFC004003002B00F0B6807B68DB6B1B685B68C2
:10300C00A7F8BE30B7F8BE30002B00F045817B68C6
:10301C009B8DB7F8BE209A4280F03E817B68B7F852
:10302C00BE20DA857B68DB6B9B69202B00F08880E7
:10303C007B681B680C33C7F88830D7F8883053E8A6
:10304C00003FC7F88430D7F8843023F48073C7F876
:10305C00B8307B681B680C33D7F8B820C7F89420BD
:10306C00C7F89030D7F89010D7F8942041E8002397
:10307C00C7F88C30D7F88C30002BD9D17B681B6803
:10308C0014337B677B6F53E8003F3B673B6F23F048
:10309C000103C7F8B4307B681B681433D7F8B4202D
:1030AC00C7F88020FB67F96FD7F8802041E8002330
:1030BC00BB67BB6F002BE1D17B681B6814333B668D
:1030CC003B6E53E8003FFB65FB6D23F04003C7F8F4
:1030DC00B0307B681B681433D7F8B020FA66BB6637
:1030EC00B96EFA6E41E800237B667B6E002BE3D150
:1030FC007B68202283F842207B6800221A637B685D
:10310C001B680C33FB64FB6C53E8003FBB64BB6C6B
:10311C0023F01003C7F8AC307B681B680C33D7F86E
:10312C00AC20BA657B65796DBA6D41E800233B65CF
:10313C003B6D002BE3D17B68DB6B1846FFF744FA41
:10314C007B6802225A637B689A8D7B68DB8D9BB20D
:10315C00D31A9BB21946786800F0C8F89CE000BFFF
:10316C00073800087B689A8D7B68DB8D9BB2D31A7D
:10317C00A7F8CE307B68DB8D9BB2002B00F08E80E5
:10318C00B7F8CE30002B00F089807B681B680C33BD
:10319C00BB63BB6B53E8003F7B637B6B23F4907387
:1031AC00C7F8C8307B681B680C33D7F8C8207A6422
:1031BC003B64396C7A6C41E80023FB63FB6B002B9E
:1031CC00E3D17B681B6814337B627B6A53E8003F56
:1031DC003B623B6A23F00103C7F8C4307B681B6871
:1031EC001433D7F8C4203A63FB62F96A3A6B41E8AE
:1031FC000023BB62BB6A002BE3D17B68202283F8DF
:10320C0042207B6800221A637B681B680C333B618D
:10321C003B6953E8003FFB60FB6823F01003C7F8E1
:10322C00C0307B681B680C33D7F8C020FA61BB61D7
:10323C00B969FA6941E800237B617B69002BE3D112
:10324C007B6802225A63B7F8CE301946786800F0D2
:10325C004DF823E0D7F8E43003F08003002B09D0BD
:10326C00D7F8E03003F08003002B03D0786800F02F
:10327C00D8FA14E0D7F8E43003F04003002B0ED05A
:10328C00D7F8E03003F04003002B08D0786800F04A
:10329C0017FB04E000BF02E000BF00E000BFE8370E
:1032AC00BD4680BD80B483B000AF786000BF0C37E2
:1032BC00BD4680BC704780B483B000AF786000BF5F
:1032CC000C37BD4680BC704780B483B000AF7860CB
:1032DC0000BF0C37BD4680BC704780B483B000AFD4
:1032EC00786000BF0C37BD4680BC704780B483B09B
:1032FC0000AF78600B467B8000BF0C37BD4680BCAE
:10330C00704780B590B000AF78607B685B6AFB63F8
:10331C007B681B681B6803F02003002B37D1FB6B09
:10332C000022DA84FB6B1B6814337B627B6A53E8E4
:10333C00003F3B623B6A23F08003BB63FB6B1B6863
:10334C001433BA6B3A63FB62F96A3A6B41E80023B7
:10335C00BB62BB6A002BE5D1FB6B1B680C333B617A
:10336C003B6953E8003FFB60FB6843F040037B6321
:10337C00FB6B1B680C337A6BFA61BB61B969FA6938
:10338C0041E800237B617B69002BE5D102E0F86BFF
:10339C0001F0ECF800BF4037BD4680BD80B584B06D
:1033AC0000AF78607B685B6AFB60F868FFF77AFFB8
:1033BC0000BF1037BD4680BD80B59CB000AF7860B3
:1033CC007B685B6AFB667B681B681B6803F02003E9
:1033DC00002B72D1FB6E0022DA85FB6E1B680C335E
:1033EC00FB64FB6C53E8003FBB64BB6C23F4807341
:1033FC00BB66FB6E1B680C33BA6EBA657B65796D68
:10340C00BA6D41E800233B653B6D002BE5D1FB6EAB
:10341C001B681433BB63BB6B53E8003F7B637B6B54
:10342C0023F001037B66FB6E1B6814337A6E7A649F
:10343C003B64396C7A6C41E80023FB63FB6B002B1B
:10344C00E5D1FB6E1B6814337B627B6A53E8003F4B
:10345C003B623B6A23F040033B66FB6E1B681433F4
:10346C003A6E3A63FB62F96A3A6B41E80023BB623D
:10347C00BB6A002BE5D1FB6E202283F84220FB6E49
:10348C001B6B012B19D1FB6E1B680C333B613B6929
:10349C0053E8003FFB60FB6823F01003FB65FB6EF9
:1034AC001B680C33FA6DFA61BB61B969FA6941E8C2
:1034BC0000237B617B69002BE5D1FB6E00225A63F4
:1034CC00FB6E1B6B012B06D1FB6E9B8D1946F86EA8
:1034DC00FFF70CFF02E0F86EFFF7EDFE00BF703750
:1034EC00BD4680BD80B584B000AF78607B685B6AF8
:1034FC00FB60FB6801225A63FB681B6B012B08D134
:10350C00FB689B8D5B089BB21946F868FFF7EEFED3
:10351C0002E0F868FFF7D8FE00BF1037BD4680BD4B
:10352C0080B584B000AF78600023FB607B685B6A79
:10353C00BB60BB681B685B6903F08003002B14BF86
:10354C0001230023DBB2FB60BB6893F84130DBB294
:10355C00212B08D1FB68002B05D0BB680022DA8434
:10356C00B86800F0C1F8BB681B685B6903F04003E6
:10357C00002B14BF01230023DBB2FB60BB6893F864
:10358C004230DBB2222B08D1FB68002B05D0BB6884
:10359C000022DA85B86800F0CEF8BB685B6C43F0AB
:1035AC001002BB685A64B868FFF797FE00BF10376B
:1035BC00BD4680BD80B598B000AFF860B9601346C9
:1035CC00FB80BA68FB689A62FB68FA889A85FB688C
:1035DC0000225A64FB68222283F84220FB68DB6BD2
:1035EC003E4A9A62FB68DB6B3D4ADA62FB68DB6B36
:1035FC003C4A1A63FB68DB6B00225A6307F1080331
:10360C00FB65FB68D86BFB681B6804331946FB6DC4
:10361C001A68FB88FEF778FF00233B61FB681B6888
:10362C001B683B61FB681B685B683B613B69FB6823
:10363C001B69002B19D0FB681B680C333B643B6C7B
:10364C0053E8003FFB63FB6B43F48073BB65FB6883
:10365C001B680C33BA6DFA64BB64B96CFA6C41E844
:10366C0000237B647B6C002BE5D1FB681B68143357
:10367C00FB62FB6A53E8003FBB62BB6A43F0010389
:10368C007B65FB681B6814337A6DBA637B63796B5B
:10369C00BA6B41E800233B633B6B002BE5D1FB6825
:1036AC001B681433BB61BB6953E8003F7B617B69CA
:1036BC0043F040033B65FB681B6814333A6D7A6238
:1036CC003B62396A7A6A41E80023FB61FB69002B93
:1036DC00E5D1002318466037BD4680BDC5330008D0
:1036EC00F13400082D35000880B489B000AF786043
:1036FC007B681B680C33FB60FB6853E8003FBB60C6
:10370C00BB6823F0C003FB617B681B680C33FA6950
:10371C00BA617B617969BA6941E800233B613B6915
:10372C00002BE5D17B68202283F8412000BF243791
:10373C00BD4680BC704780B495B000AF78607B68A4
:10374C001B680C337B637B6B53E8003F3B633B6B29
:10375C0023F49073FB647B681B680C33FA6C3A643B
:10376C00FB63F96B3A6C41E80023BB63BB6B002B2A
:10377C00E5D17B681B6814333B623B6A53E8003F1E
:10378C00FB61FB6923F00103BB647B681B6814338A
:10379C00BA6CFA62BB62B96AFA6A41E800237B62CE
:1037AC007B6A002BE5D17B681B6B012B19D17B68E5
:1037BC001B680C33FB60FB6853E8003FBB60BB68C5
:1037CC0023F010037B647B681B680C337A6CBA6142
:1037DC007B617969BA6941E800233B613B69002B45
:1037EC00E5D17B68202283F842207B6800221A6393
:1037FC0000BF5437BD4680BC704780B584B000AF65
:10380C0078607B685B6AFB60FB680022DA85FB688A
:10381C000022DA84F868FFF760FD00BF1037BD4660
:10382C0080BD80B485B000AF78607B6893F8413080
:10383C00DBB2212B3ED17B689B68B3F5805F14D142
:10384C007B681B69002B10D17B681B6AFB60FB68D3
:10385C001B881A467B681B68C2F308025A607B6897
:10386C001B6A9A1C7B681A6208E07B681B6A591CED
:10387C007A6811621A787B681B685A607B68DB8CEB
:10388C009BB2013B9BB27A681946D184002B0FD1B5
:10389C007B681B68DA687B681B6822F08002DA6040
:1038AC007B681B68DA687B681B6842F04002DA6050
:1038BC00002300E0022318461437BD4680BC704735
:1038CC0080B582B000AF78607B681B68DA687B6873
:1038DC001B6822F04002DA607B68202283F84120CA
:1038EC00786800F043FE002318460837BD4680BDBB
:1038FC0080B58CB000AF78607B6893F84230DBB257
:10390C00222B40F0AE807B689B68B3F5805F17D1AB
:10391C007B681B69002B13D10023FB627B689B6ABD
:10392C00BB627B681B685B689BB2C3F308039AB2EB
:10393C00BB6A1A807B689B6A9A1C7B689A6226E039
:10394C007B689B6AFB620023BB627B689B68B3F558
:10395C00805F07D07B689B68002B0AD17B681B6952
:10396C00002B06D17B681B685B68DAB2FB6A1A70A5
:10397C0008E07B681B685B68DBB203F07F03DAB29C
:10398C00FB6A1A707B689B6A5A1C7B689A627B681C
:10399C00DB8D9BB2013B9BB27A681946D185002B1B
:1039AC005DD17B681B68DA687B681B6822F020029B
:1039BC00DA607B681B68DA687B681B6822F48072AB
:1039CC00DA607B681B685A697B681B6822F001020D
:1039DC005A617B68202283F842207B6800225A635C
:1039EC007B681B6B012B35D17B6800221A637B68CB
:1039FC001B680C337B617B6953E8003F3B613B697F
:103A0C0023F010037B627B681B680C337A6A3A6282
:103A1C00FB61F9693A6A41E80023BB61BB69002B81
:103A2C00E5D17B681B681B6803F01003102B0AD1CF
:103A3C000023FB607B681B681B68FB607B681B6852
:103A4C005B68FB60FB687B689B8D19467868FFF7A9
:103A5C004DFC02E07868FFF72EFC002302E0002307
:103A6C0000E0022318463037BD4680BD80B584B0D7
:103A7C0000AF78607B681B681B6923F440517B683E
:103A8C00DA687B681B680A431A617B689A687B68F2
:103A9C001B691A437B685B691343BB607B681B68BB
:103AAC00DB6823F4B05323F00C037A681268B9680E
:103ABC000B43D3607B681B685B6923F440717B68A4
:103ACC009A697B681B680A435A617B681B682C4A9D
:103ADC00934203D1FEF7D8FAF86002E0FEF7C0FA81
:103AEC00F860FA6813469B0013449A001A447B68EA
:103AFC005B689B00B2FBF3F3224AA2FB03235B0936
:103B0C001901FA6813469B0013449A001A447B6807
:103B1C005B689B00B2FBF3F21A4BA3FB02035B093D
:103B2C00642000FB03F3D31A1B013233154AA2FBAA
:103B3C0003235B0903F0F0031944FA6813469B0056
:103B4C0013449A001A447B685B689B00B2FBF3F247
:103B5C000C4BA3FB02035B09642000FB03F3D31A99
:103B6C001B013233074AA2FB03235B0903F00F024C
:103B7C007B681B680A449A6000BF1037BD4680BD45
:103B8C00003801401F85EB5180B500AFFDF73CFEBE
:103B9C0000F011F800F05AF800F0B0F800F0D4F88A
:103BAC0000F0C0F900F0D8FA00F070F900F08AFCCF
:103BBC0000F0A4FCFCE780B590B000AF07F118034F
:103BCC0028220021184606F0D5FE3B1D00221A6063
:103BDC005A609A60DA601A610123BB614FF480333A
:103BEC00FB6100233B620123BB6202237B634FF426
:103BFC008033BB634FF4E013FB6307F118031846E3
:103C0C00FDF764FE0346002B01D000F019F80F23DA
:103C1C007B600223BB600023FB604FF480633B613D
:103C2C0000237B613B1D02211846FEF7D1F80346A9
:103C3C00002B01D000F004F800BF4037BD4680BD1A
:103C4C0080B400AF72B600BF00BFFDE780B588B08E
:103C5C0000AF07F1100300221A605A609A60DA6014
:103C6C00244B9B69234A43F020039361214B9B69AE
:103C7C0003F02003FB60FB681E4B9B691D4A43F05D
:103C8C00080393611B4B9B6903F00803BB60BB6883
:103C9C00184B9B69174A43F004039361154B9B69BE
:103CAC0003F004037B607B6801224FF446511248F9
:103CBC00FEF7B7FB4FF446533B6111237B610023A6
:103CCC00BB610323FB6107F1100319460A48FEF799
:103CDC000DFA03233B6100237B610123BB6107F1D8
:103CEC00100319460448FEF701FA00BF2037BD4601
:103CFC0080BD00BF00100240000C014080B582B0B6
:103D0C0000AF104B5B690F4A43F0010353610D4B3D
:103D1C005B6903F001037B607B68002203210E20AA
:103D2C00FEF711FF0E20FEF72AFF002203210F20C1
:103D3C00FEF709FF0F20FEF722FF00BF0837BD4634
:103D4C0080BD00BF0010024080B596B000AF07F1F7
:103D5C00480300221A605A609A60DA6007F1400347
:103D6C0000221A605A6007F1240300221A605A607C
:103D7C009A60DA601A615A619A613B1D2022002117
:103D8C00184606F0F7FD3F4B3F4A1A603D4B472261
:103D9C005A603C4B00229A603A4B40F2E732DA60B0
:103DAC00384B00221A61374B00225A61354B0022E6
:103DBC009A613448FCF77CFD0346002B01D0FFF7D9
:103DCC003FFF4FF48053BB6407F1480319462D485D
:103DDC00FDF7BCF80346002B01D0FFF731FF294853
:103DEC00FCF708FE0346002B01D0FFF729FF002348
:103DFC003B6400237B6407F1400319462148FDF71F
:103E0C0041FC0346002B01D0FFF71AFF60237B62B5
:103E1C004FF4FA73BB620023FB6200233B63002365
:103E2C007B630023BB630023FB6307F124030022A5
:103E3C0019461448FCF7C8FF0346002B01D0FFF7C6
:103E4C00FFFE00237B600023BB600023FB6000238C
:103E5C003B6100237B614FF40053BB6100233B6249
:103E6C003B1D19460748FDF76BFC0346002B01D0A0
:103E7C00FFF7E6FE034800F019F900BF5837BD46BE
:103E8C0080BD00BFB8000020002C014080B586B07A
:103E9C0000AF07F1080300221A605A609A60DA60DA
:103EAC003B4600221A605A601D4B4FF080421A604C
:103EBC001B4B47225A601A4B00229A60184B40F257
:103ECC00E732DA60164B00221A61154B00229A6118
:103EDC001348FCF7EDFC0346002B01D0FFF7B0FEB6
:103EEC004FF48053BB6007F1080319460C48FDF7EB
:103EFC002DF80346002B01D0FFF7A2FE00233B60F8
:103F0C0000237B603B4619460548FDF7BBFB034687
:103F1C00002B01D0FFF794FE00BF1837BD4680BDC3
:103F2C000001002080B58EB000AF07F128030022FD
:103F3C001A605A609A60DA6007F1200300221A6056
:103F4C005A603B1D00221A605A609A60DA601A614E
:103F5C005A619A612D4B2E4A1A602C4B47225A609B
:103F6C002A4B00229A60294B40F2E732DA60274B49
:103F7C0000221A61254B00229A612448FCF798FC18
:103F8C000346002B01D0FFF75BFE4FF48053BB625E
:103F9C0007F1280319461D48FCF7D8FF0346002BF0
:103FAC0001D0FFF74DFE1948FCF724FD0346002B0A
:103FBC0001D0FFF745FE00233B6200237B6207F133
:103FCC00200319461148FDF75DFB0346002B01D079
:103FDC00FFF736FE60237B604FF4FA73BB6000235F
:103FEC00FB6000237B613B1D002219460748FCF750
:103FFC00EBFE0346002B01D0FFF722FE034800F036
:10400C0055F800BF3837BD4680BD00BF48010020C1
:10401C000008004080B586B000AF78607B681B68F4
:10402C001F4A93420CD11F4B9B691E4A43F40063F9
:10403C0093611C4B9B6903F400637B617B692AE0F1
:10404C007B681B68B3F1804F14D1164BDB69154AA2
:10405C0043F00103D361134BDB6903F001033B61B4
:10406C003B69002201211C20FEF76DFD1C20FEF790
:10407C0086FD10E07B681B680B4A93420BD1094B01
:10408C00DB69084A43F00403D361064BDB6903F098
:10409C000403FB60FB6800BF1837BD4680BD00BF42
:1040AC00002C0140001002400008004080B588B090
:1040BC0000AF786007F1100300221A605A609A6012
:1040CC00DA607B681B681F4A934219D11E4B9B69AF
:1040DC001D4A43F0040393611B4B9B6903F00403DB
:1040EC00FB60FB684FF480733B6112237B610323FD
:1040FC00FB6107F1100319461448FDF7F7FF1CE0AC
:10410C007B681B68124A934217D10F4B9B690E4A6E
:10411C0043F0080393610C4B9B6903F00803BB60ED
:10412C00BB6840233B6112237B610323FB6107F1D6
:10413C00100319460748FDF7D9FF00BF2037BD46CD
:10414C0080BD00BF002C014000100240000801405F
:10415C0000080040000C014080B500AF114B124A22
:10416C001A60104B4FF4E1325A600E4B00229A60E9
:10417C000C4B0022DA600B4B00221A61094B0C220B
:10418C005A61084B00229A61064B0022DA610548FD
:10419C00FEF70FFD0346002B01D0FFF751FD00BFCA
:1041AC0080BD00BF900100200038014080B588B070
:1041BC0000AF786007F1100300221A605A609A6011
:1041CC00DA607B681B68474A934240F08680464B16
:1041DC009B69454A43F480439361434B9B6903F4C9
:1041EC008043FB60FB68404B9B693F4A43F00403F0
:1041FC0093613D4B9B6903F00403BB60BB684FF4B8
:10420C0000733B6102237B610323FB6107F1100305
:10421C0019463648FDF76AFF4FF480633B61002373
:10422C007B610023BB6107F1100319462F48FDF792
:10423C005DFF2F4B2F4A1A602D4B00225A602C4BDE
:10424C0000229A602A4B8022DA60294B00221A61E4
:10425C00274B00225A61264B20229A61244B0022C4
:10426C00DA612348FEF7F6F80346002B01D0FFF77E
:10427C00E7FC7B681E4ADA631D4A7B6853621E4B5F
:10428C001E4A1A601C4B10225A601B4B00229A606B
:10429C00194B8022DA60184B00221A61164B00224F
:1042AC005A61154B00229A61134B0022DA611248B5
:1042BC00FEF7D0F80346002B01D0FFF7C1FC7B685A
:1042CC000D4A9A630C4A7B68536200220221252016
:1042DC00FEF739FC2520FEF752FC00BF2037BD4607
:1042EC0080BD00BF003801400010024000080140B2
:1042FC00D8010020580002401C020020440002405B
:10430C0080B400AF00BFFDE780B400AF00BFFDE795
:10431C0080B400AF00BFFDE780B400AF00BFFDE785
:10432C0080B400AF00BFFDE780B400AF00BFBD4656
:10433C0080BC704780B400AF00BFBD4680BC7047E6
:10434C0080B400AF00BFBD4680BC704780B500AFE5
:10435C00FDF7A0FA00BF80BD80B500AF0248FEF7A4
:10436C00E7F900BF80BD00BF1C02002080B500AF84
:10437C000248FEF7DDF900BF80BD00BFD801002068
:10438C0080B500AF0248FCF72FFC00BF80BD00BF1A
:10439C000001002080B500AF0248FEF7F1FC00BF21
:1043AC0080BD00BF9001002080B485B000AF154BDC
:1043BC009B69144A43F001039361124B9B6903F010
:1043CC000103BB60BB680F4BDB690E4A43F08053A3
:1043DC00D3610C4BDB6903F080537B607B680A4B29
:1043EC005B68FB60FB6823F0E063FB60FB6843F0F9
:1043FC000073FB60044AFB68536000BF1437BD4672
:10440C0080BC7047001002400000014080B586B0AF
:10441C0000AF7860144A154BD31A7B617B693B6102
:10442C00134B1B68002B02D1114B124A1A60104B14
:10443C001A687B6813443A699A4207D206F0B6FAB6
:10444C0003460C221A604FF0FF3309E0084B1B683F
:10445C00FB60074B1A687B681344054A1360FB68C2
:10446C0018461837BD4680BD0050002000040000DF
:10447C0060020020F0190020FCF714FA0B480C49DC
:10448C000C4A002302E0D458C4500433C4188C42A4
:10449C00F9D3094A094C002301E013600432A2420B
:1044AC00FBD306F089FAFFF76FFB70470000002082
:1044BC0094000020D4C6000894000020F0190020BD
:1044CC00FEE7000080B500AF00F0FEF803F07EFCC4
:1044DC0002F078FA01F0B0FC01F0C4F801F018FF1A
:1044EC0003F08EF80348FCF733FA034803F0A8F9FD
:1044FC0000BF80BD00010020E8BB000880B598B06B
:10450C0000AF03F015F903E03B46184602F01CF827
:10451C003B466021184603F043F90346002BF3D1C8
:10452C0001F020FD01F0F0F901F012FF00BF60373F
:10453C00BD4680BD80B500AF04F00CFC01F0CEFD93
:10454C0001F0AAFA02F006FA00BF80BD80B582B075
:10455C0000AF78607B68044A934201D1FFF7EAFF11
:10456C0000BF0837BD4680BD0001002080B582B079
:10457C0000AF78607B68044A934201D103F046FA9D
:10458C0000BF0837BD4680BD9001002080B487B0C5
:10459C0000AF78607B68FB600E4B7B6100233B6156
:1045AC000FE0FA683B6913441B781A467B69534049
:1045BC007B617B69084A02FB03F37B613B69013336
:1045CC003B613B69572BECD97B6918461C37BD46C0
:1045DC0080BC7047C59D1C819301000180B483B0E1
:1045EC0000AF78607B68002B02DA4FF0FF3300E0FD
:1045FC00012318460C37BD4680BC704780B500AF10
:10460C002A4B4FF4C8621A60284B4FF4C8625A60A8
:10461C00264B01229A60254B0122DA600120FFF71C
:10462C00DDFF0346214A13610120FFF7D7FF034644
:10463C001E4A53611D4B00229A611C4B0022DA6109
:10464C001A4B1B4A1A62194B1A4A5A62174B1A4ACE
:10465C009A62164B194ADA62144B184A1A63134BB6
:10466C00174A5A63114B164A9A63104B154ADA6370
:10467C000E4B00221A640D4B40F646425A640B4B0B
:10468C0041F68B029A644FF0FF30FFF7A7FF034609
:10469C00064AD3640120FFF7A1FF0346034A1365C2
:1046AC00024B4FF4FA625A6500BF80BD64020020D1
:1046BC00006CCA8800943577F04902000071020042
:1046CC00400D0300BAF3FFFF80B500AFFFF796FF74
:1046DC0000F00CF800BF80BD80B400AF024B184650
:1046EC00BD4680BC704700BF6402002090B583B00B
:1046FC0000AF234B7B607B681B68224A934211D12D
:10470C007B685B68022B0DD17B689B68582B09D1A9
:10471C007B68DC687B6810331846FFF737FF03466D
:10472C009C4201D0002327E07B68103358221946A5
:10473C00154806F067F9144B1B691846FFF74EFF36
:10474C000346114A1361104B5B691846FFF746FF8D
:10475C0003460D4A53610C4BDB6C1846FFF73EFFCA
:10476C000346094AD364084B1B6D1846FFF736FF06
:10477C000346054A1365012318460C37BD4690BD08
:10478C0000F80008524143536402002080B483B007
:10479C0000AF0346FB71FB790133FB71FB791F2BD7
:1047AC0001D90023FB71FB7918460C37BD4680BC40
:1047BC00704780B483B000AF0346FB71FB79002BCC
:1047CC0001D11F2302E0FB79013BDBB218460C3709
:1047DC00BD4680BC7047B0B483B000AFC7E90001E0
:1047EC00D7E90023002B05DA0021544261EB0305C5
:1047FC0022462B46104619460C37BD46B0BC7047B6
:10480C0080B483B000AF78607B68002BB8BF5B428C
:10481C0018460C37BD4680BC704780B483B000AFDF
:10482C00786039603A687B689342B8BF1346184683
:10483C000C37BD4680BC704780B483B000AF786045
:10484C007B6847F23052934202DD47F2305307E067
:10485C007B68064A934201DA044B01E07B681BB289
:10486C0018460C37BD4680BC704700BFD08AFFFF8E
:10487C0080B485B000AF786002E07B6801337B6068
:10488C007B681B78002B09D07B681B7801331C4A92
:10489C0013441B7803F00803002BEED17B681B78C4
:1048AC00FB73FB7B0133164A13441B7803F00303A1
:1048BC00022B02D1FB7B203B00E0FB7BBB73BB7B61
:1048CC00472B11D0BB7B4D2B0ED0BB7B242B0BD09D
:1048DC00BB7B3F2B08D0BB7B212B05D0BB7B7E2B1E
:1048EC0002D0BB7B182B01D1012300E0002303F085
:1048FC000103DBB218461437BD4680BC704700BFBD
:10490C0074C5000880B485B000AF786039600023AE
:10491C00FB600023FB7212E00123FB72FA68134662
:10492C009B0013445B001A467B681B681B78303B6A
:10493C001344FB607B681B685A1C7B681A607B689D
:10494C001B681B782F2B04D97B681B681B78392BB1
:10495C00E2D9FB7A83F00103DBB2002B01D00023F8
:10496C0003E03B68FA681A60012318461437BD4609
:10497C0080BC70472DE9B00FA3B000AFF865B965E6
:10498C007A650123C7F884304FF000024FF0000322
:10499C00C7E91E234FF000024FF00003C7E91C23A8
:1049AC00BB6DFB66002387F86B30FB6D1B681B78B7
:1049BC002B2B04D0FB6D1B681B782D2B48D1FB6D6A
:1049CC001B681B782D2B02D14FF0FF3300E0012325
:1049DC00C7F88430FB6D1B685A1CFB6D1A6037E0FE
:1049EC00012387F86B30D7E91E4522462B464FF042
:1049FC0000004FF00001990041EA927190000246CC
:104A0C000B4612EB040843EB050918EB08033B6259
:104A1C0049EB09037B62D7E9088940464946FB6D9F
:104A2C001B681B78303BDA173B647A64D7E9104576
:104A3C002346C318BB612B4641EB0303FB61D7E94B
:104A4C000634C7E91E34FB6D1B685A1CFB6D1A60DB
:104A5C00FB6D1B681B782F2B04D9FB6D1B681B7817
:104A6C00392BBDD9FB6D1B681B782E2B51D1FB6DDF
:104A7C001B685A1CFB6D1A6041E0012387F86B30F0
:104A8C00FB6E012B36DDF96E444B83FB01239A1030
:104A9C00CB17D31AFB66FB6D1B681B78303BDA1700
:104AAC00BB63FA63FB6EDA173B637A63D7E90E01DB
:104ABC000B46D7E90C45224602FB03F22B468446F3
:104ACC000CFB03F3134402462146A2FB0121F964BB
:104ADC00BA64FA6C1344FB64D7E91C23D7E912457A
:104AEC0021465118396129464B417B61D7E9043481
:104AFC00C7E91C34FB6D1B685A1CFB6D1A60FB6DFF
:104B0C001B681B782F2B04D9FB6D1B681B78392B6A
:104B1C00B3D997F86B3083F00103DBB2002B01D0D3
:104B2C00002334E0BB6DDA17BB62FA62BB6FD7E9C6
:104B3C000A452A4602FB03F2FB6F214601FB03F3F5
:104B4C001344BA6F2146A2FB01AB5B449B46D7E9E9
:104B5C001C2312EB0A01B96043EB0B03FB60D7E992
:104B6C000234C7E91834D7F88430002B0BDAD7E9B4
:104B7C00182300215042386061EB03037B60D7E9B6
:104B8C000034C7E918343A6E7B6D1A60012318465D
:104B9C008C37BD46BDE8B00F704700BF67666666D0
:104BAC0080B582B000AF0346FB71FB791946034810
:104BBC0002F0B2FE00BF0837BD4680BD08BC00083D
:104BCC0080B485B000AF78600023FB7307E07B688E
:104BDC001A78FB7B1344FB737B6801337B607B6827
:104BEC001B78002BF3D1FB7B18461437BD4680BCD9
:104BFC007047000090B583B000AF78600A4B1B681B
:104C0C000133094A1360084B1C687868FFF7D8FF1A
:104C1C0003461A467B682146044802F07DFE00BF1D
:104C2C000C37BD4690BD00BFC007002014BC000867
:104C3C0080B400AF054B1B781F2B8CBF01230023C6
:104C4C00DBB21846BD4680BC704700BF3E07002053
:104C5C00B0B58EB000AF78607B6807F108041D46D4
:104C6C000FCD0FC40FCD0FC42B6823600023BB8462
:104C7C000023FB84624B1B78002B70D097F82830F4
:104C8C00002B6CD15F4B1B781846FFF792FD034647
:104C9C001A461346DB0013449B005B4A1344FB6229
:104CAC00FB6A93F82030002B59D1FB6AB3F918300A
:104CBC001846FFF7A5FD0446B7F920301846FFF754
:104CCC009FFD03469C4207DAFB6AB3F9183018467D
:104CDC00FFF796FD034605E0B7F920301846FFF7BD
:104CEC008FFD03467B63FB6AB3F91A301846FFF756
:104CFC0087FD0446B7F922301846FFF781FD0346BD
:104D0C009C4207DAFB6AB3F91A301846FFF778FDB4
:104D1C00034605E0B7F922301846FFF771FD03464C
:104D2C003B637B6B002B04DD7B6B0F2B01DC1023B7
:104D3C007B633B6B002B04DD3B6B0F2B01DC1023E7
:104D4C003B63786BFFF778FD03461A46FB6A9A8340
:104D5C00386BFFF771FD03461A46FB6ADA83B7F925
:104D6C002030002B05DDB7F920300F2B01DC102390
:104D7C003B84B7F92230002B05DDB7F922300F2B1D
:104D8C0001DC10237B841F4B1B7819461E4A0B46F3
:104D9C00DB000B449B0013441D4607F108040FCCA9
:104DAC000FC50FCC0FC523682B60164B1B7818460C
:104DBC00FFF7ECFC03461A46124B1A70104B1B788B
:104DCC000133DAB20E4B1A700D4B1B78012B02D14A
:104DDC000E4B00221A807B681B680D4A93607B681F
:104DEC005B680B4AD3607B681B69094A13617B685B
:104DFC005B69074A536100BF3837BD46B0BD00BF81
:104E0C003E0700203C070020BC020020C407002005
:104E1C004007002090B5A7B002AF7860396007F169
:104E2C001803184604F04CF8D7E90C01D7E91A23FB
:104E3C0007F11004009401F010FF034683F0010306
:104E4C00DBB2002B01D0002316E007F1080207F1BA
:104E5C0010031146184602F05DF9034683F0010376
:104E6C00DBB2002B01D0002306E0BA687B681A6025
:104E7C00FA683B681A60012318469437BD4690BD0A
:104E8C0080B59EB000AF3B46184604F019F8D7E940
:104E9C000623074B1A61D7E91423054B5A610549C0
:104EAC000548FFF7B7FF00BF7837BD4680BD00BF90
:104EBC00400700204C070020480700202DE9F04F48
:104ECC00C1B000AFC7F8A400C7F8A010C7F898305D
:104EDC00134687F89F304FF000024FF00003C7E9EC
:104EEC002C234FF000024FF00003C7E92A2307F1EF
:104EFC00B8031A46D7F8A010D7F8A40001F088FF21
:104F0C00034683F00103DBB2002B1BD1D7F8B800AA
:104F1C00D7F8BC1007F1A80307F1B00201F080FD2F
:104F2C00034683F00103DBB2002B0BD1D7E92C0134
:104F3C00D7E92A2303F0A4FF034683F00103DBB275
:104F4C00002B01D00023AAE1D7E92C01304B1B69BF
:104F5C00DA17C7F88030C7F88420D7E920341A460E
:104F6C00821ABA64234661EB0303FB64D7E912345B
:104F7C00C7E93A34D7E92A01254B5B69DA17BB67D5
:104F8C00FA67D7E91E341A46821A3A64234661EB53
:104F9C0003037B64D7E91034C7E938341C4B9A6897
:104FAC00D7F8A4309B1AC7F8DC30194BDA68D7F85D
:104FBC00A0309B1AC7F8D830D7F8DC00FFF720FCDC
:104FCC000446D7F8D800FFF71BFC034619462046C9
:104FDC00FFF723FCC7F8FC00D7F8FC30002B02DCF1
:104FEC000123C7F8FC3042F21073C7F8F83042F2D4
:104FFC001073C7F8F43097F89F30002B40F01081F5
:10500C00034B5B68002B05DD014B5B6804E000BFC4
:10501C00400700204FF49673C7F8D430D7E93A0113
:10502C00FFF7D9FBD7F8D430DA17C7F89030C7F8A8
:10503C009420D7E924341A4602FB01F2C7E9243440
:10504C00D7F8944000FB04F31344D7F89020A0FB4E
:10505C00025633441E462A4633469118B9635B41C7
:10506C00FB63D7E90E2312EB050843EB06094FF05F
:10507C0000024FF000034FEAC90343EA58734FEAAA
:10508C00C8029046994618EB050A49EB060B1AEB39
:10509C000A033B634BEB0B037B63D7E90CABC7E910
:1050AC0032ABD7E93801FFF796FBD7F8D430DA17D3
:1050BC003B677A67D7E91C45234603FB01F22B4675
:1050CC0000FB03F313442246A0FB0221C7F88C100B
:1050DC00C7F88820D7F88C201344C7F88C30D7E950
:1050EC00224522462B469118B9625B41FB62D7E9F7
:1050FC000A2321465118396229464B417B624FF0F5
:10510C0000024FF00003D7E908894946CB00464618
:10511C0043EA56734146CA001046194603462246D6
:10512C009B18BB612B460A4642EB0303FB61D7E994
:10513C0006120B46DB183B61134642EB03037B6103
:10514C00D7E90434C7E93034D7F8FC30DA17BB663A
:10515C00FA66D7E91A4522462B469118B9605B418D
:10516C00FB60D7E90223214651183966294643EBE7
:10517C0001017966D7E91823D7E93201FBF7D0FA98
:10518C0002460B461346C7F8F830D7F8FC30DA174E
:10519C00BB65FA65D7E9164522462B46911839604E
:1051AC005B417B60D7E900232146511839652946BC
:1051BC0043EB01017965D7E91423D7E93001FBF7FB
:1051CC00AFFA02460B461346C7F8F430D7F8F8305E
:1051DC000F2B06DCD7E93A23134302D01023C7F870
:1051EC00F830D7F8F4300F2B06DCD7E9382313430B
:1051FC0002D01023C7F8F430D7F8F83042F210720E
:10520C00934203DD42F21073C7F8F830D7F8F4304C
:10521C0042F21072934203DD42F21073C7F8F4307D
:10522C00D7F89830D7F8A4201A60D7F89830D7F868
:10523C00A0205A60D7F89830D7F8DC209A60D7F8BD
:10524C009830D7F8D820DA60D7E92C23D7F89830E3
:10525C001A61D7E92A23D7F898305A61D7F8F800A1
:10526C00FFF7EAFA03461A46D7F898301A83D7F8AC
:10527C00F400FFF7E1FA03461A46D7F898305A8340
:10528C00D7F8983000229A83D7F898300022DA8326
:10529C00D7F8983097F89F2083F8202001231846E0
:1052AC0007F58277BD46BDE8F08F00BF80B598B09A
:1052BC0000AF78600B46FB707B68FB644FF0FF33EC
:1052CC007B64A14B9B68FB659F4BDB68BB659E4B6E
:1052DC005B687B65002387F85330002387F85230D6
:1052EC00002387F85130002387F8503066E17B6843
:1052FC001B783B2B15D07B6801337B607B681B785C
:10530C00002B0FD07B681B780133904A13441B7819
:10531C0003F00803002BEAD17B681B783B2BE6D00B
:10532C0000E000BF7B681B78002B00F04C817B6891
:10533C001B783B2B00F047817B681B78282B00F0F7
:10534C0042817B685A1C7A601B7887F84B3097F83F
:10535C004B3001337D4A13441B7803F00303022BBB
:10536C0003D197F84B30203B01E097F84B3087F88E
:10537C004A3097F84A30472B49D10023FB6107F19B
:10538C001C023B1D11461846FFF7BCFA034683F07E
:10539C000103DBB2002B04D00220FFF701FC012338
:1053AC005AE1FB69002B02D0FB69012B07D1FB6989
:1053BC00DAB2654B9A70012387F85130FEE0FB6935
:1053CC005A2B03D1604B01221A70F7E0FB695B2B5F
:1053DC0003D15D4B00221A70F0E0FB69142B03D152
:1053EC00594B00225A70E9E0FB69152B03D1564B3F
:1053FC0001225A70E2E0FB69042B03D1012387F8E8
:10540C005030DBE01420FFF7CBFB012324E197F8AD
:10541C004A304D2B22D107F144023B1D1146184650
:10542C00FFF770FA034683F00103DBB2002B04D0C4
:10543C000220FFF7B5FB01230EE17B6C002B00F083
:10544C00BD807B6C022B00F0B9807B6C1E2B00F0B6
:10545C00B5801420FFF7A4FB0123FDE097F84A3038
:10546C00582B03D097F84A30592B4FD10023BB61EE
:10547C00354B5B78002B02D04FF47A7101E046F289
:10548C00383107F118023B1D1846FFF773FA034633
:10549C0083F00103DBB2002B04D00220FFF780FB6A
:1054AC000123D9E097F84A30582B17D197F853308D
:1054BC00002B04D01920FFF773FB0123CCE0012350
:1054CC0087F85330204B1B78002B04D11E4B9A6865
:1054DC00BB69134400E0BB69FB656FE097F8523081
:1054EC00002B04D01920FFF75BFB0123B4E0012350
:1054FC0087F85230144B1B78002B04D1124BDA680E
:10550C00BB69134400E0BB69BB6557E097F84A30B0
:10551C00462B1DD100237B6107F114023B1D012199
:10552C001846FFF727FA034683F00103DBB2002B82
:10553C0002D17B69002B04DC0420FFF731FB012333
:10554C008AE07B697B6539E04007002074C5000860
:10555C0097F84A30502B14D100233B6107F110020D
:10556C003B1D4FF47A711846FFF704FA034683F09B
:10557C000103DBB2002B21D00220FFF711FB01232A
:10558C006AE097F84A304E2B13D10023FB6007F1E9
:10559C000C023B1D11461846FFF7B4F9034683F085
:1055AC000103DBB2002B09D00220FFF7F9FA01232B
:1055BC0052E01420FFF7F4FA01234DE07B681B78CE
:1055CC00002B7FF49BAE264A7B6D536097F85030CE
:1055DC00002B14D17B6C002B11D07B6C022B0ED0CA
:1055EC007B6C1E2B0BD097F85330002B0FD197F8F8
:1055FC005230002B0BD197F85130002B07D1FB7890
:10560C00002B02D0F86CFFF7F5FA012324E0144BC1
:10561C009B78002B0CBF01230023DBB21A4607F149
:10562C002003B96DF86DFFF749FC034683F00103C5
:10563C00DBB2002B04D00F20FFF7B2FA01230BE0F2
:10564C0007F120031846FFF703FBFB78002B02D071
:10565C00F86CFFF7CFFA012318466037BD4680BDC2
:10566C004007002080B500AF184B00221A70184B71
:10567C0000221A70174B00221A70174B00221A7056
:10568C00164B00221A70164B00221A80154B002262
:10569C001A70154B00221A60144B00221A80182223
:1056AC000021134805F066F9114B01221A70104BBA
:1056BC0001225A700E4B00229A700D4B4FF49672C9
:1056CC005A60FFF7DDFB00BF80BD00BF3C07002028
:1056DC003D0700203E070020B8070020B907002036
:1056EC00BA070020BC070020C0070020C407002018
:1056FC004007002080B400AF044B1B78C3F120039B
:10570C00DBB21846BD4680BC704700BF3E07002088
:10571C0080B400AF024B1B781846BD4680BC704766
:10572C003E07002080B400AF034B01221A7000BF6B
:10573C00BD4680BC704700BFB90700202DE9F0437F
:10574C00C5B014AF6A4B9B68BB63694BDB687B636A
:10575C0007F14003184603F0B3FB07F13C0318466E
:10576C0000F056FD07F1340207F1380311461846D4
:10577C00FFF750FB03F000FB0346002B03D15D4BFE
:10578C001B78002B01D05C4B00E05C4BC7F8BC30A5
:10579C003A6FD7F8A8301343C7F8B830BB6B584AE8
:1057AC0082FB03129211DB17A2EB0308BB6B544A6A
:1057BC0082FB03129111DA178A1A4FF47A7101FBEA
:1057CC0002F29A1A1046FFF71BF881467B6B4C4A83
:1057DC0082FB03129211DB17D31A3B627B6B484A94
:1057EC0082FB03129111DA178A1A4FF47A7101FBBA
:1057FC0002F29A1A1046FFF703F8F861D7E916235C
:10580C00BA61D7E924237A61FFF774FF03463B6141
:10581C0002F0D8F8F860FFF77BFF0346BB6097F8FF
:10582C003C30002B02D00123FB6201E00023FB6221
:10583C0097F83D30002B02D00123BB6201E000231E
:10584C00BB6200F075FC0346184600F085FC7860DE
:10585C0097F84030002B02D001237B6201E000233B
:10586C007B6297F84130002B01D0012600E0002626
:10587C007D6CBC6C97F87830002B01D0012000E0D7
:10588C00002097F87930002B01D0012100E0002195
:10589C00FA6FD7F880301293119210910F900E94EA
:1058AC000D950C967B6A0B937B680A93BB6A0993E4
:1058BC00FB6A0893D7F8B8300793BB680693FB686C
:1058CC0005933B6904937B690393BB690293FB6962
:1058DC0001933B6A00934B464246D7F8BC100948EB
:1058EC0002F01AF800BFC437BD46BDE8F08300BF14
:1058FC00400700203E07002030BC000834BC0008E4
:10590C00D34D62103CBC00082DE9B0439EB004AFEF
:10591C00594B1B78002B18D0FFF78AF9034683F0FC
:10592C000103DBB2002B10D03B465F2253491846D3
:10593C0005F028F8002387F85F304F4B00221A70CF
:10594C003B4601211846FFF7B1FC4D4B1B78002B51
:10595C007AD103F053FA0346002B75D0494B1B78D0
:10596C00002B71D0484B1B781A461346DB001344AE
:10597C009B00464A13447B667B6E93F82030002BC9
:10598C0007D1404B1B78012B03D8414B1B88132BA1
:10599C0001D9012300E0002387F8633097F86330C6
:1059AC00002B38D07B6E1B69DA171C4615467B6EB4
:1059BC005B69DA17984691467B6EB3F918301A4634
:1059CC007B6EB3F91A3019467B6EB3F91C3018464E
:1059DC007B6EB3F91E300393029001910092424604
:1059EC004B462046294600F04BFC0346002B12D0B8
:1059FC00254B1B781846FEF7C9FE03461A46224B68
:105A0C001A70204B1B78013BDAB21E4B1A70204BDC
:105A1C0000221A8018E097F86330002B14D00F2066
:105A2C00FFF7BEF8184B1B781846FEF7AFFE03467F
:105A3C001A46154B1A70134B1B78013BDAB2114BFB
:105A4C001A70134B00221A80124B1B78DBB2002BFE
:105A5C000CD001F093FF034683F00103DBB2002B63
:105A6C0004D00C4B00221A70FFF768FE00BF683799
:105A7C00BD46BDE8B08300BFB80700205807002022
:105A8C00BC0700203E0700203D070020BC02002080
:105A9C00C4070020B907002080B400AF104B1B884E
:105AAC0001339AB20E4B1A800D4B1B88C72B05D9AC
:105ABC000B4B00221A800B4B01221A700A4B1B78DD
:105ACC00002B09D0094B1B88132B05D8074B1B88BF
